{
  "contractName": "meap",
  "abi": [
    {
      "inputs": [],
      "stateMutability": "nonpayable",
      "type": "constructor"
    },
    {
      "anonymous": false,
      "inputs": [
        {
          "indexed": false,
          "internalType": "string",
          "name": "artistName",
          "type": "string"
        },
        {
          "indexed": false,
          "internalType": "string",
          "name": "audienceName",
          "type": "string"
        },
        {
          "indexed": false,
          "internalType": "uint256",
          "name": "amount",
          "type": "uint256"
        }
      ],
      "name": "artistDonated",
      "type": "event"
    },
    {
      "inputs": [],
      "name": "getNumSongs",
      "outputs": [
        {
          "internalType": "uint256",
          "name": "",
          "type": "uint256"
        }
      ],
      "stateMutability": "view",
      "type": "function",
      "constant": true
    },
    {
      "inputs": [],
      "name": "checkUser",
      "outputs": [
        {
          "internalType": "enum meap.UserType",
          "name": "",
          "type": "uint8"
        }
      ],
      "stateMutability": "view",
      "type": "function",
      "constant": true
    },
    {
      "inputs": [
        {
          "internalType": "string",
          "name": "_name",
          "type": "string"
        }
      ],
      "name": "addNewArtist",
      "outputs": [],
      "stateMutability": "nonpayable",
      "type": "function"
    },
    {
      "inputs": [
        {
          "internalType": "string",
          "name": "_name",
          "type": "string"
        }
      ],
      "name": "addNewAudience",
      "outputs": [],
      "stateMutability": "nonpayable",
      "type": "function"
    },
    {
      "inputs": [],
      "name": "getAudienceDetails",
      "outputs": [
        {
          "internalType": "string",
          "name": "",
          "type": "string"
        },
        {
          "internalType": "uint256",
          "name": "",
          "type": "uint256"
        },
        {
          "internalType": "uint256[]",
          "name": "",
          "type": "uint256[]"
        }
      ],
      "stateMutability": "view",
      "type": "function",
      "constant": true
    },
    {
      "inputs": [],
      "name": "getArtistDetails",
      "outputs": [
        {
          "internalType": "string",
          "name": "",
          "type": "string"
        },
        {
          "internalType": "uint256",
          "name": "",
          "type": "uint256"
        },
        {
          "internalType": "uint256[]",
          "name": "",
          "type": "uint256[]"
        }
      ],
      "stateMutability": "view",
      "type": "function",
      "constant": true
    },
    {
      "inputs": [
        {
          "internalType": "string",
          "name": "artistName",
          "type": "string"
        }
      ],
      "name": "donateArtist",
      "outputs": [],
      "stateMutability": "payable",
      "type": "function",
      "payable": true
    },
    {
      "inputs": [
        {
          "internalType": "uint256",
          "name": "_songID",
          "type": "uint256"
        }
      ],
      "name": "getSongDetails",
      "outputs": [
        {
          "internalType": "string",
          "name": "",
          "type": "string"
        },
        {
          "internalType": "string",
          "name": "",
          "type": "string"
        },
        {
          "internalType": "string",
          "name": "",
          "type": "string"
        },
        {
          "internalType": "string",
          "name": "",
          "type": "string"
        },
        {
          "internalType": "uint256",
          "name": "",
          "type": "uint256"
        },
        {
          "internalType": "uint256",
          "name": "",
          "type": "uint256"
        }
      ],
      "stateMutability": "view",
      "type": "function",
      "constant": true
    }
  ],
  "bytecode": "0x608060405234801561001057600080fd5b5060008081905550600060018190555060006002819055506117a5806100376000396000f3fe60806040526004361061007b5760003560e01c80637f7a45101161004e5780637f7a45101461013f578063bddff7681461016c578063c156254714610199578063dc4b0291146101c45761007b565b80630c58d5b1146100805780631a0cd343146100ab57806342490c4b146100d457806377822fc2146100fd575b600080fd5b34801561008c57600080fd5b506100956101e0565b6040516100a29190610d92565b60405180910390f35b3480156100b757600080fd5b506100d260048036038101906100cd9190610f07565b6101ea565b005b3480156100e057600080fd5b506100fb60048036038101906100f69190610f07565b6102cf565b005b34801561010957600080fd5b50610124600480360381019061011f9190610f7c565b61044e565b60405161013696959493929190611028565b60405180910390f35b34801561014b57600080fd5b5061015461071f565b60405161016393929190611163565b60405180910390f35b34801561017857600080fd5b506101816108d5565b60405161019093929190611163565b60405180910390f35b3480156101a557600080fd5b506101ae610a8b565b6040516101bb919061121f565b60405180910390f35b6101de60048036038101906101d99190610f07565b610adf565b005b6000600254905090565b60016000808282546101fc9190611269565b925050819055506000600560003373ffffffffffffffffffffffffffffffffffffffff1673ffffffffffffffffffffffffffffffffffffffff16815260200190815260200160002090508181600001908161025791906114a9565b5060005481600101819055506002600360003373ffffffffffffffffffffffffffffffffffffffff1673ffffffffffffffffffffffffffffffffffffffff16815260200190815260200160002060006101000a81548160ff021916908360028111156102c6576102c56111a8565b5b02179055505050565b60018060008282546102e19190611269565b925050819055506102f0610cee565b8181600001819052506001548160200181815250503360098360405161031691906115b7565b908152602001604051809103902060006101000a81548173ffffffffffffffffffffffffffffffffffffffff021916908373ffffffffffffffffffffffffffffffffffffffff16021790555080600460003373ffffffffffffffffffffffffffffffffffffffff1673ffffffffffffffffffffffffffffffffffffffff16815260200190815260200160002060008201518160000190816103b791906114a9565b506020820151816001015560408201518160020190805190602001906103de929190610d0f565b509050506001600360003373ffffffffffffffffffffffffffffffffffffffff1673ffffffffffffffffffffffffffffffffffffffff16815260200190815260200160002060006101000a81548160ff02191690836002811115610445576104446111a8565b5b02179055505050565b6060806060806000806006600088815260200190815260200160002060000160066000898152602001908152602001600020600101600660008a8152602001908152602001600020600201600660008b8152602001908152602001600020600301600660008c815260200190815260200160002060050154600760008d8152602001908152602001600020548580546104e6906112cc565b80601f0160208091040260200160405190810160405280929190818152602001828054610512906112cc565b801561055f5780601f106105345761010080835404028352916020019161055f565b820191906000526020600020905b81548152906001019060200180831161054257829003601f168201915b50505050509550848054610572906112cc565b80601f016020809104026020016040519081016040528092919081815260200182805461059e906112cc565b80156105eb5780601f106105c0576101008083540402835291602001916105eb565b820191906000526020600020905b8154815290600101906020018083116105ce57829003601f168201915b505050505094508380546105fe906112cc565b80601f016020809104026020016040519081016040528092919081815260200182805461062a906112cc565b80156106775780601f1061064c57610100808354040283529160200191610677565b820191906000526020600020905b81548152906001019060200180831161065a57829003601f168201915b5050505050935082805461068a906112cc565b80601f01602080910402602001604051908101604052809291908181526020018280546106b6906112cc565b80156107035780601f106106d857610100808354040283529160200191610703565b820191906000526020600020905b8154815290600101906020018083116106e657829003601f168201915b5050505050925095509550955095509550955091939550919395565b606060006060600460003373ffffffffffffffffffffffffffffffffffffffff1673ffffffffffffffffffffffffffffffffffffffff168152602001908152602001600020600001600460003373ffffffffffffffffffffffffffffffffffffffff1673ffffffffffffffffffffffffffffffffffffffff16815260200190815260200160002060010154600460003373ffffffffffffffffffffffffffffffffffffffff1673ffffffffffffffffffffffffffffffffffffffff1681526020019081526020016000206002018280546107f8906112cc565b80601f0160208091040260200160405190810160405280929190818152602001828054610824906112cc565b80156108715780601f1061084657610100808354040283529160200191610871565b820191906000526020600020905b81548152906001019060200180831161085457829003601f168201915b50505050509250808054806020026020016040519081016040528092919081815260200182805480156108c357602002820191906000526020600020905b8154815260200190600101908083116108af575b50505050509050925092509250909192565b606060006060600560003373ffffffffffffffffffffffffffffffffffffffff1673ffffffffffffffffffffffffffffffffffffffff168152602001908152602001600020600001600560003373ffffffffffffffffffffffffffffffffffffffff1673ffffffffffffffffffffffffffffffffffffffff16815260200190815260200160002060010154600560003373ffffffffffffffffffffffffffffffffffffffff1673ffffffffffffffffffffffffffffffffffffffff1681526020019081526020016000206002018280546109ae906112cc565b80601f01602080910402602001604051908101604052809291908181526020018280546109da906112cc565b8015610a275780601f106109fc57610100808354040283529160200191610a27565b820191906000526020600020905b815481529060010190602001808311610a0a57829003601f168201915b5050505050925080805480602002602001604051908101604052809291908181526020018280548015610a7957602002820191906000526020600020905b815481526020019060010190808311610a65575b50505050509050925092509250909192565b6000600360003373ffffffffffffffffffffffffffffffffffffffff1673ffffffffffffffffffffffffffffffffffffffff16815260200190815260200160002060009054906101000a900460ff16905090565b600280811115610af257610af16111a8565b5b600360003373ffffffffffffffffffffffffffffffffffffffff1673ffffffffffffffffffffffffffffffffffffffff16815260200190815260200160002060009054906101000a900460ff166002811115610b5157610b506111a8565b5b14610b91576040517f08c379a0000000000000000000000000000000000000000000000000000000008152600401610b889061161a565b60405180910390fd5b343373ffffffffffffffffffffffffffffffffffffffff163111610bea576040517f08c379a0000000000000000000000000000000000000000000000000000000008152600401610be190611686565b60405180910390fd5b600981604051610bfa91906115b7565b908152602001604051809103902060009054906101000a900473ffffffffffffffffffffffffffffffffffffffff1673ffffffffffffffffffffffffffffffffffffffff166108fc349081150290604051600060405180830381858888f19350505050158015610c6e573d6000803e3d6000fd5b507f19fc7073cff31b76fe0bf3c801e7fe11652310c62d0c225a9995a5d30940c64881600560003373ffffffffffffffffffffffffffffffffffffffff1673ffffffffffffffffffffffffffffffffffffffff16815260200190815260200160002060000134604051610ce39392919061172a565b60405180910390a150565b60405180606001604052806060815260200160008152602001606081525090565b828054828255906000526020600020908101928215610d4b579160200282015b82811115610d4a578251825591602001919060010190610d2f565b5b509050610d589190610d5c565b5090565b5b80821115610d75576000816000905550600101610d5d565b5090565b6000819050919050565b610d8c81610d79565b82525050565b6000602082019050610da76000830184610d83565b92915050565b6000604051905090565b600080fd5b600080fd5b600080fd5b600080fd5b6000601f19601f8301169050919050565b7f4e487b7100000000000000000000000000000000000000000000000000000000600052604160045260246000fd5b610e1482610dcb565b810181811067ffffffffffffffff82111715610e3357610e32610ddc565b5b80604052505050565b6000610e46610dad565b9050610e528282610e0b565b919050565b600067ffffffffffffffff821115610e7257610e71610ddc565b5b610e7b82610dcb565b9050602081019050919050565b82818337600083830152505050565b6000610eaa610ea584610e57565b610e3c565b905082815260208101848484011115610ec657610ec5610dc6565b5b610ed1848285610e88565b509392505050565b600082601f830112610eee57610eed610dc1565b5b8135610efe848260208601610e97565b91505092915050565b600060208284031215610f1d57610f1c610db7565b5b600082013567ffffffffffffffff811115610f3b57610f3a610dbc565b5b610f4784828501610ed9565b91505092915050565b610f5981610d79565b8114610f6457600080fd5b50565b600081359050610f7681610f50565b92915050565b600060208284031215610f9257610f91610db7565b5b6000610fa084828501610f67565b91505092915050565b600081519050919050565b600082825260208201905092915050565b60005b83811015610fe3578082015181840152602081019050610fc8565b60008484015250505050565b6000610ffa82610fa9565b6110048185610fb4565b9350611014818560208601610fc5565b61101d81610dcb565b840191505092915050565b600060c08201905081810360008301526110428189610fef565b905081810360208301526110568188610fef565b9050818103604083015261106a8187610fef565b9050818103606083015261107e8186610fef565b905061108d6080830185610d83565b61109a60a0830184610d83565b979650505050505050565b600081519050919050565b600082825260208201905092915050565b6000819050602082019050919050565b6110da81610d79565b82525050565b60006110ec83836110d1565b60208301905092915050565b6000602082019050919050565b6000611110826110a5565b61111a81856110b0565b9350611125836110c1565b8060005b8381101561115657815161113d88826110e0565b9750611148836110f8565b925050600181019050611129565b5085935050505092915050565b6000606082019050818103600083015261117d8186610fef565b905061118c6020830185610d83565b818103604083015261119e8184611105565b9050949350505050565b7f4e487b7100000000000000000000000000000000000000000000000000000000600052602160045260246000fd5b600381106111e8576111e76111a8565b5b50565b60008190506111f9826111d7565b919050565b6000611209826111eb565b9050919050565b611219816111fe565b82525050565b60006020820190506112346000830184611210565b92915050565b7f4e487b7100000000000000000000000000000000000000000000000000000000600052601160045260246000fd5b600061127482610d79565b915061127f83610d79565b92508282019050808211156112975761129661123a565b5b92915050565b7f4e487b7100000000000000000000000000000000000000000000000000000000600052602260045260246000fd5b600060028204905060018216806112e457607f821691505b6020821081036112f7576112f661129d565b5b50919050565b60008190508160005260206000209050919050565b60006020601f8301049050919050565b600082821b905092915050565b60006008830261135f7fffffffffffffffffffffffffffffffffffffffffffffffffffffffffffffffff82611322565b6113698683611322565b95508019841693508086168417925050509392505050565b6000819050919050565b60006113a66113a161139c84610d79565b611381565b610d79565b9050919050565b6000819050919050565b6113c08361138b565b6113d46113cc826113ad565b84845461132f565b825550505050565b600090565b6113e96113dc565b6113f48184846113b7565b505050565b5b818110156114185761140d6000826113e1565b6001810190506113fa565b5050565b601f82111561145d5761142e816112fd565b61143784611312565b81016020851015611446578190505b61145a61145285611312565b8301826113f9565b50505b505050565b600082821c905092915050565b600061148060001984600802611462565b1980831691505092915050565b6000611499838361146f565b9150826002028217905092915050565b6114b282610fa9565b67ffffffffffffffff8111156114cb576114ca610ddc565b5b6114d582546112cc565b6114e082828561141c565b600060209050601f8311600181146115135760008415611501578287015190505b61150b858261148d565b865550611573565b601f198416611521866112fd565b60005b8281101561154957848901518255600182019150602085019450602081019050611524565b868310156115665784890151611562601f89168261146f565b8355505b6001600288020188555050505b505050505050565b600081905092915050565b600061159182610fa9565b61159b818561157b565b93506115ab818560208601610fc5565b80840191505092915050565b60006115c38284611586565b915081905092915050565b7f4e6f7420616e2061756469656e6365206d656d6265722e000000000000000000600082015250565b6000611604601783610fb4565b915061160f826115ce565b602082019050919050565b60006020820190508181036000830152611633816115f7565b9050919050565b7f496e73756666696369656e742062616c616e63652e0000000000000000000000600082015250565b6000611670601583610fb4565b915061167b8261163a565b602082019050919050565b6000602082019050818103600083015261169f81611663565b9050919050565b600081546116b3816112cc565b6116bd8186610fb4565b945060018216600081146116d857600181146116ee57611721565b60ff198316865281151560200286019350611721565b6116f7856112fd565b60005b83811015611719578154818901526001820191506020810190506116fa565b808801955050505b50505092915050565b600060608201905081810360008301526117448186610fef565b9050818103602083015261175881856116a6565b90506117676040830184610d83565b94935050505056fea2646970667358221220098d2686e69af6cd97a9200f579affba8974d10210ea2048043799349b6be4e764736f6c63430008130033",
  "immutableReferences": {},
  "source": "// SPDX-License-Identifier: MIT\npragma solidity >=0.7.0 <0.9.0;\n\ncontract meap {\n    uint256 audienceIDTracker;\n    uint256 artistIDTracker;\n    uint256 songIDTracker;\n\n    enum UserType {\n        UNDEFINED,\n        ARTIST,\n        AUDIENCE\n    }\n\n    struct Artist {\n        string name;\n        uint256 artistID;\n        uint256[] songsPublished;\n    }\n\n    struct Audience {\n        string name;\n        uint256 audienceID;\n        uint256[] songsPurchased;\n        mapping(uint256 => bool) isSongPurchased;\n    }\n\n    struct Song {\n        string songName;\n        string artistName;\n        string genre;\n        string hash;\n        uint256 songID;\n        uint256 price;\n        address payable artistAddress;\n    }\n\n    mapping(address => UserType) identifyUser;\n    mapping(address => Artist) allArtists;\n    mapping(address => Audience) allAudience;\n    mapping(uint256 => Song) allSongs;\n    mapping(uint256 => uint256) timesSongPurchased;\n    mapping(string => bool) songHashUsed;\n    mapping(string => address payable) getArtistAddress;\n\n    constructor() {\n        audienceIDTracker = 0;\n        artistIDTracker = 0;\n        songIDTracker = 0;\n    }\n\n    function getNumSongs() public view returns (uint256) {\n        return songIDTracker;\n    }\n\n    function checkUser() public view returns (UserType) {\n        return identifyUser[msg.sender];\n    }\n\n    function addNewArtist(string memory _name) public {\n        artistIDTracker += 1;\n\n        Artist memory newArtist;\n        newArtist.name = _name;\n        newArtist.artistID = artistIDTracker;\n        getArtistAddress[_name] = payable(msg.sender);\n\n        allArtists[msg.sender] = newArtist;\n        identifyUser[msg.sender] = UserType.ARTIST;\n    }\n\n    function addNewAudience(string memory _name) public {\n        audienceIDTracker += 1;\n\n        Audience storage newAudience = allAudience[msg.sender];\n        newAudience.name = _name;\n        newAudience.audienceID = audienceIDTracker;\n\n        identifyUser[msg.sender] = UserType.AUDIENCE;\n    }\n\n    function getAudienceDetails()\n        public\n        view\n        returns (\n            string memory,\n            uint256,\n            uint256[] memory\n        )\n    {\n        return (\n            allAudience[msg.sender].name,\n            allAudience[msg.sender].audienceID,\n            allAudience[msg.sender].songsPurchased\n        );\n    }\n\n    function getArtistDetails()\n        public\n        view\n        returns (\n            string memory,\n            uint256,\n            uint256[] memory\n        )\n    {\n        return (\n            allArtists[msg.sender].name,\n            allArtists[msg.sender].artistID,\n            allArtists[msg.sender].songsPublished\n        );\n    }\n\n    event artistDonated(string artistName, string audienceName, uint256 amount);\n\n    function donateArtist(string memory artistName) public payable {\n        require(\n            identifyUser[msg.sender] == UserType.AUDIENCE,\n            \"Not an audience member.\"\n        );\n        require(msg.sender.balance > msg.value, \"Insufficient balance.\");\n\n        getArtistAddress[artistName].transfer(msg.value);\n\n        emit artistDonated(artistName, allAudience[msg.sender].name, msg.value);\n    }\n\n    function getSongDetails(uint256 _songID)\n        public\n        view\n        returns (\n            string memory,\n            string memory,\n            string memory,\n            string memory,\n            uint256,\n            uint256\n        )\n    {\n        return (\n            allSongs[_songID].songName,\n            allSongs[_songID].artistName,\n            allSongs[_songID].genre,\n            allSongs[_songID].hash,\n            allSongs[_songID].price,\n            timesSongPurchased[_songID]\n        );\n    }\n}\n",
  "sourcePath": "C:\\Users\\NBawek\\test\\meap-main\\App\\contracts\\meap.sol",
  "compiler": {
    "name": "solc",
    "version": "0.8.19+commit.7dd6d404.Emscripten.clang"
  },
  "schemaVersion": "3.4.16",
  "updatedAt": "2024-04-19T22:02:51.852Z",
  "networkType": "ethereum",
  "devdoc": {
    "kind": "dev",
    "methods": {},
    "version": 1
  },
  "userdoc": {
    "kind": "user",
    "methods": {},
    "version": 1
  }
}